:1000000000800020BD010000811B0000451B000096
:10001000451B0000451B0000451B0000451B000060
:10002000451B0000451B0000451B0000811B000014
:10003000811B0000451B0000811B0000351B0000D8
:10004000811B0000811B0000811B0000811B000040
:10005000811B0000811B0000811B0000811B000030
:10006000811B0000811B0000811B0000811B000020
:10007000811B0000811B0000811B0000811B000010
:10008000811B0000811B0000811B0000811B000000
:10009000811B0000811B0000811B0000811B0000F0
:1000A000811B0000811B0000811B0000811B0000E0
:1000B000811B0000811B0000811B0000811B0000D0
:1000C000811B0000811B0000811B0000811B0000C0
:1000D000811B0000811B0000811B0000811B0000B0
:1000E000811B0000811B0000811B0000811B0000A0
:1000F000811B0000D11F0000811B0000C9240000EB
:10010000811B0000E5280000811B0000811B00000E
:10011000811B0000811B0000811B0000811B00006F
:10012000811B0000811B0000811B0000811B00005F
:10013000811B0000811B0000811B0000811B00004F
:10014000811B0000811B0000811B0000811B00003F
:10015000811B0000811B0000811B0000811B00002F
:10016000811B0000A10B0000811B0000811B00000F
:10017000811B0000811B0000811B0000811B00000F
:10018000811B0000811B0000811B0000811B0000FF
:10019000811B0000811B0000811B0000811B0000EF
:1001A000811B0000811B0000811B0000811B0000DF
:1001B000811B0000811B0000811B000010B56B4BF0
:1001C0004CF220521A804DF628121A8000BF00BF50
:1001D00001F0DAFC4FF01062654B1A60654A083393
:1001E0001A60654A04331A60A3F530432C3B1B6840
:1001F00013F4807F06D10022604B1A604FF4A8529E
:10020000043B1A605E4B1B7813F0080F04D05C4B64
:100210001A7842F008021A702A225A4B1A705A4B66
:100220005A4A9A420DD2131D594CE41A24F0030481
:1002300004340023104657495A581A500433A34235
:10024000FAD1554B554A9A4280F08C80131F54497D
:10025000C91A21F003011A1D1144002243F8042F8A
:100260008B42FBD17EE05A581A500433B3F5DE7F3F
:10027000F9D14C4B80214C4A03F8011B9342FBD12E
:100280004A4B4B4A1A600A224A4B1A702422A3F6A0
:10029000FF731A70A022013B1A7006331A7812F00D
:1002A000020FFBD0444B1A7812F0100FFBD1424BD7
:1002B0001A7802F00C02082AFAD103223F4B1A7076
:1002C000402201331A7001331A7812F0200FFBD04C
:1002D000394B1A7812F0400FFBD0394A394B1A606B
:1002E000022204331A602022374B1A7006331A7820
:1002F00002F00C020C2AFAD1344A354B1A6045F64A
:10030000BF52344B1A60002204331A600722083BA4
:100310001A60314A03F551631A6062B600F002FBBD
:10032000164B1B6813F0010F05D02C4800F076F92E
:100330002B4A2C4B1A602C4B1B7813F0400F0AD021
:10034000284B1A68264B9A4205D1244800F066F9DA
:100350000022244B1A6002F0B7FB01F01BFC00F0F6
:1003600055F9FEE70023124820497CE70E2005409E
:1003700030800440823F04000100002B14D0034071
:1003800002D0074000E00740908CFF1F6087FF1FEE
:10039000938CFF1F502F00008C8FFF1F908CFF1F2E
:1003A000878FFF1F00E400E05FE400E008ED00E05D
:1003B0000082FF1F005006400640064004400640F1
:1003C000000003334480044000400640C010050094
:1003D0000480044014E000E00000202026FCD655F4
:1003E000A5C3945A1CE0034000F007400000000041
:1003F000FFFFFFFFFFFFFFFFFFFFFFFFFFFFFFFF0D
:10040000FFFFFFFFFFFFFFFFFFFFFFFFFEFFFFFFFD
:1004100010B5054C237833B9044B13B10448AFF33E
:1004200000800123237010BD908CFF1F000000008E
:10043000502F000008B5064B1BB106480649AFF324
:1004400000800648036813B1054B03B1984708BD07
:1004500000000000502F0000948CFF1F908CFF1FA5
:100460000000000008B50B20012100F0E7F80C2087
:10047000002100F0E3F81420EA2100F025F90F2014
:10048000012100F0DBF80E20002100F0D7F8152044
:10049000FF2100F019F908BD08B50B20002100F07C
:1004A000CDF80C20012100F0C9F81420E92100F05A
:1004B0000BF90F20002100F0C1F80E20012100F0FF
:1004C000BDF81520FF2100F0FFF808BD08B50B208E
:1004D000012100F0B3F80C20002100F0AFF8142047
:1004E000FF2100F0F1F80F20002100F0A7F80E2006
:1004F000012100F0A3F81520FF2100F0E5F808BD68
:1005000008B50B20002100F099F80C20012100F023
:1005100095F81420FF2100F0D7F80F20012100F0FA
:100520008DF80E20002100F089F81520FF2100F041
:10053000CBF808BD08B50B20012100F07FF80C2096
:10054000012100F07BF81420FF2100F0BDF80F20FE
:10055000012100F073F80E20012100F06FF8152042
:10056000FF2100F0B1F808BD08B5FFF7C9FF40F260
:100570005A5000F0C3F908BD08B51420012100F05D
:1005800081F80B20012100F07DF80C20012100F002
:1005900079F81520012100F075F80F20012100F0F5
:1005A00071F80E20012100F06DF808BD08B5FFF7C5
:1005B00059FF41F27C5000F0A1F9FFF7D5FFFFF79A
:1005C00051FF41F27C5000F099F9FFF7CDFFFFF7A2
:1005D00063FF41F27C5000F091F9FFF791FF4FF477
:1005E0000C7000F08BF9FFF771FF4FF40C7000F006
:1005F00085F9FFF737FF40F6B83000F07FF9FFF7D5
:1006000099FF4FF4FA6000F079F908BD08B5FFF7DB
:10061000B3FFFFF7CBFF01F033F8FAE7044B0022FA
:100620001A6004490A60044A106010221A60704778
:1006300014D0034004D0034000D0034021281ED82A
:100640000F4B53F8303093F8802212F0FF0F08D090
:1006500019B1012283F880207047012283F800211C
:100660007047074B03EBC000436821B11A6842F0A2
:1006700003021A6070471A6822F002021A6070477B
:10068000702C000021281CD80E4B03EBC0035B68C4
:10069000012908D10B4A52F8302082F880124FF419
:1006A000A2721A607047074A52F83020002082F880
:1006B000800219B94FF480721A60704740F2031239
:1006C0001A607047702C000010B5044628280FD11E
:1006D0005D4B1B780B2B03D8C3F10C03994003E04F
:1006E0000C2B84BF0C3B1941084601F007FA10BDE2
:1006F000554B1B78012202FA03F0002908DC204642
:100700000021FFF79BFF20460121FFF7BBFF10BD33
:100710000A46884208D820460121FFF78FFF20466D
:100720000121FFF7AFFF10BDE01EC0B2012806D8BF
:100730004648006800FB011222FA03F310E0202C67
:1007400001D0192C06D14248006800FB022222FA8F
:1007500003F305E03F48006800FB011222FA03F3AF
:10076000E01E1D2864D8DFE800F0474E402B63638D
:100770001D2463636363636363636332390F1663CA
:100780005C63636363636355334A136040F24442BE
:10079000324B1A6010BD324A136040F24442314B72
:1007A0001A6010BD304A136040F244422F4B1A6069
:1007B00010BD2F4A136040F244422E4B1A6010BD08
:1007C0002D4A136040F244422C4B1A6010BD2C4A53
:1007D000136040F244422B4B1A6010BD2A4A13604A
:1007E00040F24442294B1A6010BD294A136040F27E
:1007F0004442284B1A6010BD274A13604FF45172CF
:10080000264B1A6010BD264A13604FF45172254BD7
:100810001A6010BD244A13604FF45172234B1A60C2
:1008200010BD234A13604FF45172224B1A6010BD61
:1008300020467F29D4BF00210121FFF7FFFE20467B
:100840000121FFF71FFF10BD6087FF1F08900340C5
:1008500008800B40088003401080034004B004402F
:100860001880034008B00440208003400CB00440CE
:100870002880034010B004403080034010C0044082
:100880003880034014C004404080034018C0044036
:10089000488003401CC00440109003403090044046
:1008A000189003403490044010800B4048A004404E
:1008B00018800B404CA0044072B60C4B1B680C4ACD
:1008C00012680C49096862B611F0806F02D0322BB1
:1008D00088BF0132C3F5BB433F330749A1FB030384
:1008E0001B094FF47A7000FB0230704718E000E0FB
:1008F000AC8CFF1F04ED00E0ABAAAAAA38B50546F0
:10090000FFF7DAFF044665B1FFF7D6FF001BB0F52D
:100910007A7F03D3013D04D004F57A7400F0B0FE71
:10092000F2E738BD10B5254B4FF400021A604FF0C6
:1009300080721A604FF000721A604FF080621A6085
:100940004FF000621A6000201D4B18604BF6FF71DB
:100950000433196028231B4A1360083213600832DD
:1009600013600832136008321360083213600832D3
:100970001360083213600822134C226004F580547F
:10098000043420600434216004342360083423607C
:10099000143C226004F5FE24043420600B480160FE
:1009A0000B490B6008310B600A4B1A6001F01CF810
:1009B0000420FFF7A3FF00F063FC10BD08E100E096
:1009C000048003400C8003400080034008800B40FB
:1009D0000C800B4000800B4030B40E4B1B7843F072
:1009E00002020D4C04EBC20460600C480078002841
:1009F0000CBF8824C82444EA0141074D45F8321051
:100A000080F00100054A107083F00103014A137061
:100A100030BC70472C8DFF1F0080FF1FB58DFF1F5E
:100A200010B4431E052B11D872B60A4A52F823009F
:100A300050B14268074941F82320074A32F8134071
:100A40000188611A22F8131062B600E000205DF8F8
:100A5000044B7047148DFF1F808FFF1F013805283E
:100A60000DD872B6074B53F820302BB1002001305F
:100A70005B68002BFBD100E0002062B670470020CD
:100A8000704700BF708DFF1F38B572B601231B4938
:100A90001B4C5A1812F8012C12F0080F24D09A009F
:100AA00054F832506DB9164B03EBC2010830486060
:100AB000144943F83210144B1A78013A1A7062B68E
:100AC00038BD42F0010254F832506DB90C4B03EBC3
:100AD000C201083048600D4943F832100A4B1A78B9
:100AE000013A1A7062B638BD0133072BD1D162B614
:100AF0000022054B1A7000F027FC38BD702E000054
:100B00000080FF1F88004000AA8DFF1FC800400022
:100B100010B4431E052B37D8400140F010001C4A8A
:100B2000104472B61B4AD25C032A09D8DFE802F0EF
:100B300019021B050830022216E00830042213E0D7
:100B4000154A52F823201AB9134A42F8231003E039
:100B5000124A52F823205160104A42F8231062B61C
:100B600012E0032200E005220A4CE25401F10803DE
:100B7000436000F00803002B0CBF8823C8230A88B9
:100B800043EA0243036062B65DF8044B704700BF5E
:100B90000080FF1FCC8CFF1F708DFF1F888DFF1FF3
:100BA0002DE9F84FA84CDFF8F092DFF8F0A2DFF85B
:100BB000F0B22578EDB215F0040F1DD0A34B1B78D1
:100BC00013F0FF0F16D0A24B1B7803F0FF022BB1DE
:100BD000531EDBB29E4A137003B900BE9D4B1B78B7
:100BE00003F0FF0233B1531EDBB29A4A13700BB904
:100BF00000F028FD0423237015F0080F00F0D482C4
:100C000099F80030DBB21D0940F01582924D9E0824
:100C100005EBC6035A6855F83630C3F38303013B2E
:100C20000C2B00F20482DFE813F0BB01BB010202CF
:100C300002020202020202020202DC0102020202BB
:100C400002020D00854913680B6052684A60844AAD
:100C500045F83620002283490A607F490A618A618B
:100C60000121814A11709BB240F28162934218D8EF
:100C7000B3F5D06F29D2B3F5817F00F0178106D884
:100C8000802B00F0C380822B00F0C68056E140F23A
:100C90000232934200F01F81B3F5A06F00F0528141
:100CA0004CE1B3F5106F16D004D8B3F5086F00F01F
:100CB000A78043E140F62112934200F06D8140F697
:100CC0002122934200F03E8138E1684B5D68002D9F
:100CD00040F016812EE1614B9A785C4B1A705E4DA4
:100CE00005F1C0062B6A13F0800F03D0686A08383C
:100CF00000F02AFB0835B542F4D1DFF8A8810026C0
:100D000037465B4AB05828B1456800F01DFB0DB16D
:100D10002846F9E7002356497350564AB350564BBC
:100D2000F05828B1456800F00FFB0DB12846F9E7EF
:100D3000002351497350514AB35028F8023F504B99
:100D4000FB5C023B032B0AD8DFE803F00206020635
:100D500000224B4BDA5502E00122494BDA550137AC
:100D60000436182ECDD10022464B1A700125464E6E
:100D7000DFF83481384F05EB080313F8013C06F81F
:100D8000043B13F0080F2DD000F0BEFA48B1A900C3
:100D900007EB451200F1080353603C4A47F8312045
:100DA00007E0AB00002247F83320364B1A780132B7
:100DB0001A7000F0A9FA58B1AB0043F0010307EB39
:100DC000C30100F108024A60254A47F8332009E0D0
:100DD000AB0043F00103002247F83320294B1A7877
:100DE00001321A70AA0042F00201002347F83130A4
:100DF00042F0030247F8323001355E45BBD114E2C0
:100E0000124B1B78224D2B700127A0E0204D0023B0
:100E10002B706B7002279AE0104B9B88062B03D92E
:100E20000F221C4B1A70B7E0194A00211170517043
:100E3000184A12F8233013F0020F00F08680144D88
:100E400001232B70022782E080200740B48DFF1F12
:100E50002D8DFF1FC48DFF1F0080FF1FA08DFF1F62
:100E6000C8004000B08CFF1FB58DFF1F782E00001A
:100E7000148DFF1FB48CFF1F708DFF1F888DFF1F07
:100E8000CC8CFF1FAA8DFF1FC420074088004000A4
:100E9000AC8DFF1FC02007409020074094200740E2
:100EA000DC2007407E8FFF1F702E0000964B9B8832
:100EB00003F07F02062A02DC934A52881AB10F22FD
:100EC000924B1A7068E0914A12F8231021F0020147
:100ED00002F82310A9E18C4B9B8803F07F02062ABD
:100EE00002DC894A52881AB10F22884B1A7053E0EB
:100EF000864A12F8231041F0020102F8231094E10F
:100F0000814B5E889F88824BA3F10C02114633F817
:100F10000C0CB04209D133F80A0CB84205D1360A9C
:100F2000032E0CBF2F78178911E00D690C330C329A
:100F3000002DEBD10F22754B1A702DE00F22734B51
:100F40001A7029E000273D4601E00227714D6E4BE3
:100F5000DB889F4228BF1F46402F34BF3E464026B5
:100F600028463146FFF738FD3544BF1B03D13F2EDD
:100F700000F2608110E0402F34BF3E4640262846F4
:100F80003146FFF729FD3544BF1B01D13F2E03D960
:100F9000614B1D60614B1F8001238AF8003046E0E1
:100FA000594B19685E4B994217D1574B59685D4BA5
:100FB000994212D11378A92B0FD15378452B0CD11C
:100FC0009378C22B09D1D3786B2B06D10522564BCF
:100FD0001A7000200146FFF7FFFC544B45F83630ED
:100FE00025E04D4B1E68BEB14C4FB7F80080B8F1FC
:100FF000400F34BF4546402530462946FFF7ECFCFC
:10100000C5EB08039BB23B800BB9402D01D13544A1
:1010100000E00025404B1D603B4B1B88B3F5A06FE3
:1010200005D1394B00225A709B7841490B7001233E
:101030008AF80030B5E03F4E9F0806EBC708D8F8A5
:101040000420A2F10800013DEDB213F0080F47D0D3
:1010500000F07AF9384B53F825304BB35A683649CB
:1010600041F8252003F10802C8F80420334A525DF4
:10107000032A12D8DFE802F002060A0E03212F4AE3
:1010800051550AE002212D4A515506E005212B4A0F
:10109000515502E00421294A515518F0080F0CBFA0
:1010A0008822C8221B8842EA034346F8373078E09A
:1010B000224B5B5D032B0BD8DFE803F07373020652
:1010C00000221E4B5A556CE001221C4B5A5568E019
:1010D00018F0080F0CBF02220322184B5A5560E08B
:1010E00056F837301B0C22F8083C002B51D0002357
:1010F00022F8063C42F8043C114B53F825300BBB58
:101100000F4B43F8250021E0A08DFF1FC0200740B2
:10111000842E0000AC8DFF1FB08CFF1FA88DFF1F19
:1011200021090003010004002D8DFF1FC8004000AD
:10113000982007400080FF1F708DFF1FCC8CFF1F81
:10114000148DFF1F3F4B53F8253058603D4B43F83B
:1011500025003D4B33F8151032F8082C0A4423F8CB
:10116000152000F0D1F860B100F10803C8F8043090
:1011700018F0080F354B364A08BF134646F837308B
:101180000FE0002346F83730324B1A7801321A70DC
:1011900007E018F0080F2D4B2D4A08BF134646F8FC
:1011A00037300823237004E515F0010F22D02A49B7
:1011B00002230B700022294B1A70294B2448186017
:1011C000284C5C6098602848D8601A619A610D20AC
:1011D000264B1870FF232648037008380370183018
:1011E0000270244A13709F22234B1A7001230B7044
:1011F000BDE8F88F15F0800F05D00D221B4B1A703B
:101200008022403B1A7015F0020F06D0184B1A7856
:10121000D2B21A700222083B1A7015F0100F0ED0CD
:101220001022164B1A70BDE8F88F00200146FFF718
:10123000D3FBB1E628460021FFF7CEFBACE6BDE8C4
:10124000F88F00BFB48CFF1F808FFF1FC8004000C5
:1012500088004000AA8DFF1F942007402C8DFF1F9F
:101260000080FF1FD48CFF1F308DFF1FC020074060
:10127000882007408C2007408420074080200740BA
:1012800008B501F08FFB00231B491A465A50C818B5
:1012900042600833C82BF9D1184B1A6842F48022F7
:1012A0001A60154BC3F30721154A1170C3F30741A8
:1012B000143211701B0E04321370FF23343A137072
:1012C00008321370783A13700123843213700021AE
:1012D0006C3211707C3A137070220A4B1A704FF402
:1012E0000072A3F241331A60102203F1C04303F5E8
:1012F000C8231A7008BD00BF0080FF1F348004405F
:101300009C20074049E400E072B60D4B1A68B2FA1F
:1013100082F30B2B02D962B6002070474FF00041D8
:10132000D94022EA010206490A6062B6054903EB88
:10133000C303DB00C8180022CA504260704700BFD8
:101340006487FF1F0084FF1F08B50F4BC31A0F4AA5
:10135000A2FB03131B090B2B14D80D4A12783AB1C8
:101360000C4A127812F0FF0F02D0FFF78DFB08BD78
:1013700072B6094A4FF0004121FA03F3116819438C
:10138000116062B608BD00BF0084FF1F398EE338CC
:10139000AA8DFF1FB48DFF1F6487FF1FF8B5194B7F
:1013A0001B7813F0FF0F24D0174C0227154E20682E
:1013B00020B93846FFF734FB2060E8B14388C218F3
:1013C000157A6DB101330288934206D3FFF7BCFF53
:1013D00000220D4B1A602846F8BD43802846F8BD10
:1013E000FFF7B2FF00232360337813F0FF0FDED145
:1013F00005E04FF0FF30F8BD4FF0FF30F8BD4FF083
:10140000FF30F8BDB48DFF1FC08DFF1F70B5134BAB
:101410001B7813F0FF0F16D0114C02260F4D2068D9
:1014200020B93046FFF7FCFA206078B143880344C6
:101430001B7A73B9FFF788FF002323602B7813F022
:10144000FF0FECD107E04FF0FF3070BD4FF0FF30E1
:1014500070BD184670BD4FF0FF3070BDB48DFF1FDA
:10146000C08DFF1F38B5194B1B6853B9184B1B783B
:1014700013F0FF0F24D00220FFF7D2FA134B1860AD
:1014800000B3124B1868058843889D4212DDC218CC
:10149000127A7AB103F108020244ED1A012303E043
:1014A00012F8011F013319B11C46AB42F8D100E01C
:1014B00023464BB9FFF748FF0020044B186038BDA6
:1014C000002038BD002038BD204638BDC08DFF1F2C
:1014D000B48DFF1F2DE9F047044601223B4B1A70E3
:1014E0000F4600296DD0DFF8F090DFF8F0A01E461F
:1014F000DFF8DC80D9F80030A3BB9AF8003013F095
:10150000FF0F06D10022314B1A704FF0FF30BDE8BB
:10151000F08741F6B5650120FFF7A0FA052806D847
:1015200001233370FFF7F0FEC9F80000D0B9013D88
:1015300002D098F800304BB10122254B1A700022DE
:10154000224B1A704FF0FF30BDE8F0870023337054
:1015500000F096F8012333709AF8003013F0FF0F73
:10156000D9D1CFE7002388F80030D9F800104A8895
:10157000C2F14005AF4238BF3D4602F108030B44BB
:101580002A444A807F1B3DB1254414F8012B03F8FF
:10159000012BAC42F9D100E025464B883F2B03D804
:1015A00005220C4B1A7009E040230B800024094BE4
:1015B0001C700120FFF7ACFAC9F800400FB12C46AF
:1015C00098E70020014B1870BDE8F087B68DFF1F2B
:1015D000BC8DFF1FC48DFF1FB88DFF1FB48DFF1F73
:1015E00000B583B002AB03F8010D18460121FFF7E7
:1015F00071FF03B05DF804FB08B50F4B1B7813F0C7
:10160000FF0F17D00D4B1968A1B14A8892B1002085
:101610000B4B187013463F2A04DCCA1810720133B2
:10162000402BFAD140230B800120FFF771FA0022F2
:10163000024B1A6008BD00BFB48DFF1FB88DFF1F9D
:10164000C48DFF1F08B50C4B1B7813F0FF0F12D190
:101650000A4B19684B883F2B05DC0020CA18107212
:101660000133402BFAD140230B800120FFF750FAC1
:101670000022024B1A6008BDB68DFF1FB88DFF1FF8
:1016800008B50F4B1B78CBB901220D4B1A70FFF731
:10169000E9FE08B101F0E6F900F036FC08B100F00F
:1016A00087F800F0ADFE08B100F008F901F0CAF8C3
:1016B00008B100F089F90022014B1A7008BD00BF83
:1016C000C58DFF1F08B503681B68C9B2984708BDE0
:1016D00008B503681B68C9B2984708BD08B5036818
:1016E0001B68C9B2984708BD08B503681B68C9B232
:1016F000984708BD08B54B0803F1377000F5D8408E
:10170000B0FBF1F000F068FA08BD00BF10B5144658
:101710004B0803F1377000F5D840B0FBF1F000F052
:101720005BFA204600F09EFA10BD00BF08B500F03D
:10173000C9FA08BD08B5084600F0F6FA08BD00BFB2
:1017400008B500F0E1FB08BD08B500F009FC08BDD4
:1017500008B500F0E9FB08BD08B500F0B3FB08BD13
:1017600008B500F017FC08BD08B500F0BBFB08BDCC
:1017700008B5084600F0F4FA012008BD08B508468F
:1017800000F0EEFA012008BD10B5144608461146D7
:1017900000F036FB204610BD38B50D46084601F076
:1017A000BBF904462846214600F02AFB204638BDF6
:1017B000704700BF044B00221A714FF47A71996090
:1017C0001A73024A1A607047C88DFF1F882D0000E7
:1017D00008B503681B68C9B2984708BD08B5036817
:1017E0001B68C9B2984708BD08B503681B68C9B231
:1017F000984708BD08B503681B68C9B2984708BD7B
:1018000008B54B0803F1377000F5D840B0FBF1F094
:1018100000F05EFC08BD00BF10B514464B0803F194
:10182000377000F5D840B0FBF1F000F051FC2046D5
:1018300000F094FC10BD00BF08B500F0BFFC08BD6F
:1018400008B5084600F0ECFC08BD00BF08B500F084
:10185000D7FD08BD08B500F0FFFD08BD08B500F0D4
:10186000DFFD08BD08B500F0A9FD08BD08B500F012
:101870000DFE08BD08B500F0B1FD08BD08B508466D
:1018800000F0EAFC012008BD08B5084600F0E4FCC1
:10189000012008BD10B514460846114600F02CFD85
:1018A000204610BD38B50D46084601F035F904460E
:1018B0002846214600F020FD204638BD704700BF75
:1018C000044B00221A714FF47A7199601A73024A1C
:1018D0001A607047D88DFF1FD82D000008B5036827
:1018E0001B68C9B2984708BD08B503681B68C9B230
:1018F000984708BD08B503681B68C9B2984708BD7A
:1019000008B503681B68C9B2984708BD08B54B08FD
:1019100003F1377000F5D840B0FBF1F000F054FE51
:1019200008BD00BF10B514464B0803F1377000F531
:10193000D840B0FBF1F000F047FE204600F086FEF4
:1019400010BD00BF08B500F0B1FE08BD08B50846DF
:1019500000F0DEFE08BD00BF08B500F073FF08BD53
:1019600008B500F09BFF08BD08B500F07BFF08BD7F
:1019700008B500F045FF08BD08B500F0A9FF08BD97
:1019800008B500F04DFF08BD08B5084600F0DCFEC4
:10199000012008BD08B5084600F0D6FE012008BDAC
:1019A00010B514460846114600F01EFF204610BD33
:1019B00038B50D46084601F0AFF8044628462146E2
:1019C00000F012FF204638BD704700BF044B0022D4
:1019D0001A714FF47A7199601A73024A1A6070474B
:1019E000E88DFF1F282E000060223A4B1A70E1227A
:1019F00001331A70384B1B78082B10D1002203F1E9
:101A0000804303F56C331A60132334490B6001F5EE
:101A1000FF2101F2FC710A60314A13601FE00A2BBA
:101A20000DD138222F4B1A6013232C490B6001F57E
:101A3000FF2101F2FC710A60294A13600FE00C2BB0
:101A40000CBF34223C22274B1A60122323490B601F
:101A500001F5FF2101F2FC710A60214A1360224B5B
:101A60001B7833B10123214A136002F50022136071
:101A700005E000231D4A136002F5002213601C4B91
:101A80001B78012B06D880231A4A136002F5002226
:101A900013601AE0042B06D88423164A136002F55B
:101AA0000022136011E0082B06D88523114A136029
:101AB00002F50022136008E0102B94BF86238723D1
:101AC0000C4A136002F50022136001220A4B1A70BF
:101AD000704700BF004007406887FF1F0CB00340FD
:101AE0000CB00B4008B00340F98DFF1F20B003403D
:101AF0006987FF1F24B00340F88DFF1F094B1A6848
:101B000042F480521A60084B1B781BB18022074BAD
:101B10001A7002E0C022054B1A7080F30C00044BCF
:101B2000188070472C800440F98DFF1F21C00C40A5
:101B300000C00C40024B1A6801321A60704700BFA7
:101B4000AC8CFF1F08B50D4C236813F4802F01D017
:101B5000FFF726F8236813F4806F01D000F038FAFD
:101B6000236813F4006F01D000F0AEFC236813F477
:101B7000805FE9D000F0B6FEE6E700BF34800440A5
:101B800008B5FFF7DFFF00BF1022014B1A80704736
:101B900000200540704700BFEFF31383ABB9EFF3AC
:101BA0001083ABB9EFF3058323B10F2B05D9094A95
:101BB000985C03E04FF4807000E00020EFF31183A5
:101BC0003BB1834238BF184670474FF0FF30704733
:101BD00000207047F0E300E0194B1A6842F480627D
:101BE0001A600023174A1370174A1370174A1370AC
:101BF000174A1370174A137040F21332164B1A60CB
:101C00004FF4517204331A60C0F34432134B1A700C
:101C1000C0F347125A7000F01F00987204229A70A5
:101C20000221D9745A7588221A743C22DA70402233
:101C30000B4B1A704FF40052A3F229331A6070470D
:101C4000348004407C8EFF1FFB8DFF1F848EFF1F9E
:101C50007D8EFF1FFA8DFF1F40A0044000A00640AC
:101C60002DE400E0164B9B7803F0EC0300F0030238
:101C7000134310F0040F18BF43F01003104A937081
:101C800000F00F03042B04D11346927942F0400276
:101C90009A710B4B5A7902F0EF0210F0100F18BF37
:101CA00042F01002064B5A719B7903F0EF0310F0DB
:101CB000200F18BF43F01003014A9371704700BF13
:101CC00000A0064010B5114B1B6813F4806F1CD0A8
:101CD0000F4B1B7813F0FF0F06D00D4CFFF7D0FC15
:101CE000237813F0FF0FF9D14FF40052094B1A601B
:101CF0000023094AD37040F2031208490A600431F4
:101D00000A60074A1370074A137010BD34800440FC
:101D1000FA8DFF1F84E100E000A0064040A00440CF
:101D20007C8EFF1FFB8DFF1F10B50446094A1378F8
:101D300013F0FF0FFBD120460121FEF7A3FC204644
:101D40000021FEF77BFC044B53F83420034B1A6050
:101D500010BD00BFFA8DFF1F702C0000808EFF1F8A
:101D60002DE9F04107461F4B1B6813F4806F37D0F5
:101D70001D4B1B680BB101221A701C4B1C780134DF
:101D8000402C28BF00241A4D1A4EDFF86C8017E053
:101D9000FFF702FF40280FDC337913F0800F0FD0DC
:101DA0002B780133402B28BF002318F80320D2B230
:101DB000F271DBB22B7003E0FF2801DDFFF760FC5E
:101DC0002B78DBB29C42E3D0FFB20B4B1F550122B4
:101DD0000A4B1A70E4B2054B1C70BC22054BDA703A
:101DE000BDE8F08134800440808EFF1F848EFF1F89
:101DF0007D8EFF1F00A00640FC8DFF1FFA8DFF1F88
:101E00002DE9F84F0746284B1B6813F4806F49D023
:101E1000264B1B680BB101221A7007EB010B5F45C3
:101E20003DD2DFF89890224EDFF88C80DFF890A04A
:101E300099F800400134402C28BF00243578EDB2D9
:101E4000A54220D1BC2388F80330FFF7A5FE402827
:101E500011DC98F8043013F0800F10D03378013380
:101E6000402B28BF00231AF80320D2B288F807209D
:101E7000DBB2337003E0FF2801DDFFF701FC3378AC
:101E8000DBB29D42E1D017F8013B0AF80430012291
:101E9000084B1A70E4B289F800405F45C8D1BC22F3
:101EA000054BDA70BDE8F88F34800440808EFF1F48
:101EB0007D8EFF1FFA8DFF1F00A00640848EFF1F3E
:101EC000FC8DFF1F10B5064B1B7813F0FF0F06D0DB
:101ED000034CFFF7D5FB237813F0FF0FF9D110BDAA
:101EE000FA8DFF1F064B1B78DBB2064A1278D2B27E
:101EF00093422CBF3F3202F1FF32D01A704700BF2D
:101F0000848EFF1F7D8EFF1F054B1878C0B2054BD6
:101F10001B78DBB2984238BF4030C01A704700BF10
:101F20007C8EFF1FFB8DFF1F0A4B1A78D2B20A4B23
:101F30001B78DBB29A4209D00133402B28BF002323
:101F4000064AD05CDBB2044A137070474FF0FF3092
:101F5000704700BF7C8EFF1FFB8DFF1F3C8EFF1F55
:101F6000094B1A78D2B2094B1B78DBB29A4207D0E0
:101F70000133402B28BF0023054AD05CC0B2704714
:101F80004FF0FF30704700BF7C8EFF1FFB8DFF1F9F
:101F90003C8EFF1F0A4B1B6813F4806F0FD0094B58
:101FA000DA7802F0CB02DA7040225A74DA7842F022
:101FB0003402DA70044B1A78D2B2044B1A707047AC
:101FC0003480044000A00640FB8DFF1F7C8EFF1F65
:101FD00070B4364B1B7913F0300F25D072B6334BEB
:101FE0009B7D03F0FF022BB9304BDA7940225A7403
:101FF00062B619E062B62E4B1978C9B22D4B1D7826
:10200000EDB22A4C2C4EE379D8B24B1C402B28BFA2
:102010000023AB421CBFF0541946531E13F0FF02BD
:10202000F1D1C9B2224B1970204BDA78D2B212F03A
:10203000800F27D01B7913F0800F23D01F4B1C7803
:10204000E4B21F4B1B78DBB29C4210D017491D4DE8
:1020500001E0A3420BD00133402B28BF00230879B5
:10206000E85CC0B2C871087DC0B20728F1D9DBB204
:1020700013490B700D4B1B7913F0800F02D07C219C
:102080000A4BD97012F0400F0ED0084B1B7913F099
:10209000400F09D000220C4B1A700C4B1B6803B187
:1020A0001A703C22014BDA7070BC704700A00640E9
:1020B0007C8EFF1FFB8DFF1F3C8EFF1F848EFF1F3A
:1020C0007D8EFF1FFC8DFF1FFA8DFF1F808EFF1F6F
:1020D000194B1A6842F400621A600023174A137001
:1020E000174A1370174A1370174A1370174A137060
:1020F00040F21332164B1A604FF4517204331A60D7
:10210000C0F34432134B1A70C0F347125A7000F0F8
:102110001F00987204229A700221D9745A7588227D
:102120001A743C22DA7040220B4B1A704FF40042B2
:10213000A3F22B331A60704734800440F08EFF1FE7
:10214000868EFF1FF88EFF1FF18EFF1F858EFF1FEB
:102150000CB0044000B006402FE400E0164B9B7822
:1021600003F0EC0300F00302134310F0040F18BF58
:1021700043F01003104A937000F00F03042B04D1B6
:102180001346927942F040029A710B4B5A7902F051
:10219000EF0210F0100F18BF42F01002064B5A71F8
:1021A0009B7903F0EF0310F0200F18BF43F01003EA
:1021B000014A9371704700BF00B0064010B5114B43
:1021C0001B6813F4006F1CD00F4B1B7813F0FF0F2C
:1021D00006D00D4CFFF754FA237813F0FF0FF9D116
:1021E0004FF40042094B1A600023094AD37040F2B1
:1021F000031208490A6004310A60074A1370074A4B
:10220000137010BD34800440858EFF1F84E100E010
:1022100000B006400CB00440F08EFF1F868EFF1FFA
:1022200010B50446094A137813F0FF0FFBD120467E
:102230000121FEF727FA20460021FEF7FFF9044BA3
:1022400053F83420034B1A6010BD00BF858EFF1F6A
:10225000702C0000F48EFF1F2DE9F04107461F4B44
:102260001B6813F4006F37D01D4B1B680BB10122A4
:102270001A701C4B1C780134282C28BF00241A4DDE
:102280001A4EDFF86C8017E0FFF786FC40280FDC61
:10229000337913F0800F0FD02B780133282B28BF10
:1022A000002318F80320D2B2F271DBB22B7003E0E6
:1022B000FF2801DDFFF7E4F92B78DBB29C42E3D085
:1022C000FFB20B4B1F5501220A4B1A70E4B2054BAB
:1022D0001C70BC22054BDA70BDE8F08134800440EC
:1022E000F48EFF1FF88EFF1FF18EFF1F00B0064017
:1022F000888EFF1F858EFF1F2DE9F84F0746284B5C
:102300001B6813F4006F49D0264B1B680BB10122E8
:102310001A7007EB010B5F453DD2DFF89890224E13
:10232000DFF88C80DFF890A099F800400134282C69
:1023300028BF00243578EDB2A54220D1BC2388F80F
:102340000330FFF729FC402811DC98F8043013F023
:10235000800F10D033780133282B28BF00231AF8C0
:102360000320D2B288F80720DBB2337003E0FF28E5
:1023700001DDFFF785F93378DBB29D42E1D017F834
:10238000013B0AF804300122084B1A70E4B289F8C4
:1023900000405F45C8D1BC22054BDA70BDE8F88F1C
:1023A00034800440F48EFF1FF18EFF1F858EFF1FC7
:1023B00000B00640F88EFF1F888EFF1F10B5064B39
:1023C0001B7813F0FF0F06D0034CFFF759F9237861
:1023D00013F0FF0FF9D110BD858EFF1F064B1B7840
:1023E000DBB2064A1278D2B293422CBF273202F1F6
:1023F000FF32D01A704700BFF88EFF1FF18EFF1F0B
:10240000054B1878C0B2054B1B78DBB2984238BF39
:102410004030C01A704700BFF08EFF1F868EFF1F2E
:102420000A4B1A78D2B20A4B1B78DBB29A4209D017
:102430000133402B28BF0023064AD05CDBB2044A9C
:10244000137070474FF0FF30704700BFF08EFF1FD2
:10245000868EFF1FB08EFF1F094B1A78D2B2094B30
:102460001B78DBB29A4207D00133402B28BF0023F0
:10247000054AD05CC0B270474FF0FF30704700BFD4
:10248000F08EFF1F868EFF1FB08EFF1F0A4B1B684A
:1024900013F4006F0FD0094BDA7802F0CB02DA7038
:1024A00040225A74DA7842F03402DA70044B1A7817
:1024B000D2B2044B1A7070473480044000B006401A
:1024C000868EFF1FF08EFF1F70B4364B1B7913F002
:1024D000300F25D072B6334B9B7D03F0FF022BB932
:1024E000304BDA7940225A7462B619E062B62E4B4C
:1024F0001978C9B22D4B1D78EDB22A4C2C4EE379D8
:10250000D8B24B1C402B28BF0023AB421CBFF05459
:102510001946531E13F0FF02F1D1C9B2224B1970B4
:10252000204BDA78D2B212F0800F27D01B7913F04B
:10253000800F23D01F4B1C78E4B21F4B1B78DBB2FB
:102540009C4210D017491D4D01E0A3420BD001332E
:10255000282B28BF00230879E85CC0B2C871087D29
:10256000C0B20728F1D9DBB213490B700D4B1B79B0
:1025700013F0800F02D07C210A4BD97012F0400F6B
:102580000ED0084B1B7913F0400F09D000220C4BE2
:102590001A700C4B1B6803B11A703C22014BDA70A5
:1025A00070BC704700B00640F08EFF1F868EFF1F84
:1025B000B08EFF1FF88EFF1FF18EFF1F888EFF1F4A
:1025C000858EFF1FF48EFF1F174B1A6842F480524E
:1025D0001A600023154A1370154A1370154A1370B8
:1025E000154A1370154A137040F21331144A1160E2
:1025F0004FF4517104321160C0F34431114A11702B
:10260000C0F34711517000F01F0090729370137463
:102610002C23D37040220C4B1A704FF40032A3F2DB
:102620002D331A60704700BF34800440648FFF1F51
:10263000FA8EFF1F6C8FFF1F658FFF1FF98EFF1F24
:1026400008C0044000C0064031E400E0164B9B780F
:1026500003F0EC0300F00302134310F0040F18BF63
:1026600043F01003104A937000F00F03042B04D1C1
:102670001346927942F040029A710B4B5A7902F05C
:10268000EF0210F0100F18BF42F01002064B5A7103
:102690009B7903F0EF0310F0200F18BF43F01003F5
:1026A000014A9371704700BF00C0064010B5114B3E
:1026B0001B6813F4805F1CD00F4B1B7813F0FF0FC7
:1026C00006D00D4CFEF7DCFF237813F0FF0FF9D195
:1026D0004FF40032094B1A600023094AD37040F2CC
:1026E000031208490A6004310A60074A1370074A56
:1026F000137010BD34800440F98EFF1F84E100E0A8
:1027000000C0064008C00440648FFF1FFA8EFF1F00
:1027100010B50446094A137813F0FF0FFBD1204689
:102720000121FDF7AFFF20460021FDF787FF044B95
:1027300053F83420034B1A6010BD00BFF98EFF1F01
:10274000702C0000688FFF1F2DE9F04107461F4BDA
:102750001B6813F4805F37D01D4B1B680BB101223F
:102760001A701C4B1C780134282C28BF00241A4DE9
:102770001A4EDFF86C8017E0FFF70EFA40280FDCE6
:10278000337913F0800F0FD02B780133282B28BF1B
:10279000002318F80320D2B2F271DBB22B7003E0F1
:1027A000FF2801DDFEF76CFF2B78DBB29C42E3D003
:1027B000FFB20B4B1F5501220A4B1A70E4B2054BB6
:1027C0001C70AC22054BDA70BDE8F0813480044007
:1027D000688FFF1F6C8FFF1F658FFF1F00C00640B3
:1027E000FC8EFF1FF98EFF1F38B505460C4629B138
:1027F00015F8010BFFF7A8FF013CF9D138BD00BF68
:1028000010B5064B1B7813F0FF0F06D0034CFEF7F4
:1028100037FF237813F0FF0FF9D110BDF98EFF1F9A
:10282000064B1B78DBB2064A1278D2B293422CBF19
:10283000273202F1FF32D01A704700BF6C8FFF1FA2
:10284000658FFF1F054B1878C0B2054B1B78DBB2B4
:10285000984238BF4030C01A704700BF648FFF1FD6
:10286000FA8EFF1F0A4B1A78D2B20A4B1B78DBB2E2
:102870009A4209D00133402B28BF0023064AD05C7E
:10288000DBB2044A137070474FF0FF30704700BF4F
:10289000648FFF1FFA8EFF1F248FFF1F094B1A78CA
:1028A000D2B2094B1B78DBB29A4207D00133402BDE
:1028B00028BF0023054AD05CC0B270474FF0FF30FC
:1028C000704700BF648FFF1FFA8EFF1F248FFF1F0A
:1028D000024B1A78D2B2024B1A707047FA8EFF1F61
:1028E000648FFF1F264B1B7913F0200F12D0244B4F
:1028F000DB79D9B2234B1B780133402B28BF00234F
:10290000214A1278D2B29A4204D0204AD154DBB282
:102910001C4A13701A4BDB78DBB213F0800F1CD00B
:10292000174A127912F0800F17D0194A1178C9B2DC
:10293000184A1278D2B2914203D16C21104AD17058
:102940000BE00132282A28BF00221349885CC0B25C
:102950000B49C871D2B20F490A7013F0400F0ED064
:10296000074B1B7913F0400F09D000220B4B1A7054
:102970000B4B1B6803B11A702C22014BDA707047A5
:1029800000C00640648FFF1FFA8EFF1F248FFF1FB9
:102990006C8FFF1F658FFF1FFC8EFF1FF98EFF1FBF
:1029A000688FFF1F00B585B072B61B4B70221A707E
:1029B00041211A4A11700F21013A117080221A70B8
:1029C0001A46137813F0800FFBD0154B186862B6C7
:1029D000144B98429CBF00EB8000400001A90A22E2
:1029E00000F050F89DF804307BB908E001A9595C6B
:1029F00031B19180023201330A2BF7D100E000237C
:102A000001335B00084A137003E0074A5380012337
:102A1000ECE705B05DF804FB00000240070002404F
:102A2000080002407F9698005088FF1F08B5FEF707
:102A300019FD08BD08B5FEF7B1FC08BD08B5FEF7E5
:102A4000E5FC08BD08B5FEF7D7FD08BD08B508468A
:102A5000FEF7C6FD08BD00BF08B508461146FEF7E3
:102A600039FD08BD704700BF044B00221A714FF4B6
:102A70007A7199601A73024A1A607047708FFF1F4B
:102A8000082F000030B40023B0FBF2F402FB140462
:102A90001D46092C94BF30343734E4B2CC54B0FB1B
:102AA000F2F008B10133EFE70D4400226A7093425F
:102AB00007DD885CCC5C8C54C8540132013B9A42DF
:102AC000F7DB084630BC704770B50F4E0F4D761BD4
:102AD000B61007D0043D0024013455F8043F984750
:102AE000A642F9D10A4E0B4D761B00F01DFAB61026
:102AF00008D0043D0024013455F8043F9847A6420D
:102B0000F9D170BD70BD00BF342F0000342F00001C
:102B10004C2F0000342F000020F0030110F00300C0
:102B2000C0F1000051F8043B00F1040C4FEACC0C5A
:102B30006FF000021CBF22FA0CF213434FF0010C9D
:102B40004CEA0C2C4CEA0C4CA3EB0C0222EA0302DC
:102B500012EACC1204BF51F8043B0430F4D013F055
:102B6000FF0F1FBF013013F47F4F013013F47F0FAD
:102B700018BF0130704700BF024B13B1024800F08C
:102B800005B8704700000000992B000001460020A6
:102B90000246034600F018B838B5094D094C641BCD
:102BA000A41018BF05EB840505D0013C55F8043D81
:102BB0009847002CF9D1BDE8384000F0C7B900BFF4
:102BC0000000000000000000F0B5274C2668D6F891
:102BD000484185B00746002C41D065681F2D1EDD99
:102BE000224818B94FF0FF3005B0F0BD4FF4C8705F
:102BF000039102920193AFF300800399029A019B23
:102C000004460028EED0D6F84851256000206060C8
:102C10000546C6F84841C4F88801C4F88C013FB99C
:102C2000AB1C00200135656044F8231005B0F0BDF1
:102C300004EB85004FF0010CC0F88820D4F88861BF
:102C40000CFA05F21643022FC4F88861C0F8083167
:102C5000E6D1D4F88C311A43C4F88C21E0E706F5AC
:102C6000A674C6F84841B8E7242F00000000000011
:102C70004008FE4340A004404408FE4344A00440F2
:102C80000018FE4300C004403000FE433090044072
:102C90003400FE43349004401C18FE431CC0044022
:102CA0001018FE4310C004400818FE4308C004403A
:102CB0000C18FE430CC004400C10FE430CB0044042
:102CC0001010FE4310B004401810FE4318B004402A
:102CD0001C10FE431CB004401410FE4314B004400A
:102CE0000418FE4304C004400010FE4300B004403A
:102CF0000008FE4300A004400408FE4304A0044072
:102D00000C08FE430CA004400808FE4308A0044041
:102D10001418FE4314C004401818FE4318C00440A1
:102D20000410FE4304B004400810FE4308B0044001
:102D30001400FE43149004404C08FE434CA0044091
:102D40000420FE4304D004402410FE4324B0044079
:102D50002010FE4320B004402810FE4328B0044059
:102D60002C10FE432CB004400020FE4300D0044051
:102D70004808FE4348A004401000FE431090044061
:102D8000000000000000000071170000891700001B
:102D900041170000511700004917000059170000A3
:102DA000F51600000D1700002D1700003517000064
:102DB0006117000069170000C5160000D116000059
:102DC000DD160000E9160000991700007D170000CD
:102DD00000000000000000007D18000095180000B1
:102DE0004D1800005D18000055180000651800001F
:102DF00001180000191800003918000041180000DF
:102E00006D18000075180000D1170000DD170000D4
:102E1000E9170000F5170000A51800008918000048
:102E2000000000000000000089190000A119000046
:102E3000591900006919000061190000711900009A
:102E40000D19000025190000451900004D1900005A
:102E50007919000081190000DD180000E918000050
:102E6000F518000001190000B119000095190000C3
:102E70001519151900000000000100006C87FF1FE4
:102E800012000000000200009887FF1F49000000A8
:102E900000220100E487FF1F210000000021010043
:102EA000CA87FF1F09000000002200000888FF1FDA
:102EB0001C00000000210000AA87FF1F090000007D
:102EC000000300004C88FF1F0000000001030904FC
:102ED0008087FF1F00000000020309042488FF1FF1
:102EE00000000000030309045088FF1F00000000D9
:102EF000000000000000000000000000FFFFFFFFD6
:102F000000000000000000004D2A0000592A0000C7
:102F10002D2A0000352A00003D2A0000452A000025
:102F2000430000006888FF1FF8B500BFF8BC08BC6C
:102F30009E467047792B000035040000B51700004D
:0C2F4000C1180000CD190000692A000033
:042F4C00F8B500BF15
:102F500008000000FFFFFFFF0A040000120100024A
:102F600000000040C01686040001010203010000B9
:102F700018035400650065006E007300790064005A
:102F8000750069006E006F0009024900020100C06F
:102F900032090400000203000000092111010001B0
:102FA000221C0007058303400001070504034000BD
:102FB00001090401000203000000092111010001C0
:102FC00022210007058103400001070502032000BC
:102FD0000200000006C9FF0904A15C75081500265F
:102FE000FF009540097581029520097691029504AC
:102FF0000976B102C000000006ABFF0A0002A10181
:103000007508150026FF00954009018102954009C9
:10301000029102C026035400650065006E00730033
:1030200079006400750069006E006F002000520096
:1030300061007700480049004400000004030904CF
:103040000C03000000000000000000000000000071
:10305000000000000000000000000000548BFF1F73
:10306000BC8BFF1F248CFF1F00000000000000002D
:103070000000000000000000000000000000000050
:10308000000000000000000000000000202F0000F1
:103090000000000000000000000000000000000030
:1030A0000000000000000000000000000000000020
:1030B0000000000000000000000000000000000010
:1030C0000000000000000000000000000000000000
:1030D00000000000000000000000000000000000F0
:1030E00000000000000000000000000000000000E0
:1030F00000000000000000000000000000000000D0
:1031000001000000000000000E33CDAB34126DE66C
:10311000ECDE05000B0000000000000000000000D5
:10312000000000000000000000000000000000009F
:10313000000000000000000000000000000000008F
:10314000000000000000000000000000000000007F
:10315000000000000000000000000000000000006F
:00000001FF
